:020000040800F2
:10000000280800209D010008A11D00084F100008CD
:100010009D1D00086F0900082B3300080000000038
:10002000000000000000000000000000C5220008E1
:10003000450C000800000000311E0008072C0008D5
:10004000B7010008B7010008B7010008B7010008B0
:10005000B7010008B7010008B7010008B7010008A0
:10006000B7010008B7010008B7010008B701000890
:10007000B7010008B7010008B7010008B701000880
:10008000B7010008B7010008B7010008B701000870
:10009000B7010008B7010008B7010008B701000860
:1000A000B7010008B7010008B7010008B701000850
:1000B000B7010008B7010008B7010008B701000840
:1000C000B7010008B7010008B7010008B701000830
:1000D000B7010008FD300008B7010008B7010008AB
:1000E000B7010008B7010008B7010008B701000810
:1000F000B7010008B7010008FD2C0008B70100088F
:10010000B70100083D210008B7010008B701000849
:10011000B7010008B7010008B7010008B7010008DF
:10012000B7010008B7010008B7010008B7010008CF
:10013000B7010008B7010008B7010008B7010008BF
:10014000B7010008B7010008B7010008B7010008AF
:10015000B7010008B7010008B7010008B70100089F
:10016000B7010008B7010008B7010008B70100088F
:10017000B7010008B7010008B7010008B70100087F
:10018000B7010008B7010008DFF80CD000F0EEFA64
:1001900000480047C53D0008280800200648804761
:1001A00006480047FEE7FEE7FEE7FEE7FEE7FEE75C
:1001B000FEE7FEE7FEE7FEE7092C000889010008DC
:1001C0002DE9FE4F81EA030404F0004421F00041D0
:1001D00000944FF0000B23F0004350EA01045ED07E
:1001E00052EA03045BD0C3F30A54C1F30A552C440A
:1001F000A4F2F3340194A0FB0254C1F3130141F4BF
:100200008011C3F3130343F4801301FB024400FB8A
:10021000034E840A970A44EA815447EA8357A4FBB1
:10022000076802958D0A05FB07854FEA932C04FBAE
:100230000C542705029D4FEA065847EA1637B5EBDE
:1002400008056EEB070C870E920E47EA811742EA0B
:100250008312A7FB0201B6EB0B0164EB00042B0D2C
:1002600043EA0C335E1844EB1C50DA465146E7FB78
:100270000201C5F313044FEA0B3343EA14534FEA68
:100280000432019C43EA0603A4F10C040294009C8E
:10029000CDE900B400F05CF903B0BDE8F08F0020B8
:1002A0000146F9E72DE9F04D81EA030404F0004B23
:1002B00021F0004514464FF0000A23F0004150EAB7
:1002C000050220D054EA01021DD0C5F30A570246A8
:1002D000C5F31303C1F31300C1F30A5640F48015AC
:1002E00043F48013A7EB0608101BD64608F2FD382E
:1002F00073EB050002D308F1010801E092185B419D
:10030000B8F1000F03DA00200146BDE8F08D0020AF
:100310004FF48011064684460EE0171B73EB050769
:1003200005D3121B63EB050306434CEA010C490895
:100330004FEA300092185B4150EA0107EDD152EAD2
:10034000030012D082EA040083EA0501084305D0C5
:10035000101BAB4106D20122002306E000224FF021
:10036000004302E06FF0010253101AEB06004CEB61
:10037000085110EB0A0041EB0B01BDE8F04D00F015
:10038000D8B80EB5C10F80EAE0700844CA07002152
:1003900040F233438DE80E000A460B4600F0D8F8D1
:1003A00003B000BD0EB540F2334102910021CDE90A
:1003B00000110A460B4600F0CBF803B000BD70B543
:1003C000C1F30A5201F000450024C1F3130140F2C9
:1003D000FF3341F480119A4201DA002070BD40F2EF
:1003E00033439A42A2F2334203DC524200F091F8C6
:1003F00000E090402C43F1D0404270BD00F000423C
:1004000030F000400AD0C10D01F56071C0F3160054
:1004100042EA0151C20840071143704700200146DB
:100420007047000030B5041E71F1000404DB4FF08A
:100430000044404264EB0101141E73F1000405DB2B
:100440001C464FF00043524263EB04038B4208BF4B
:10045000824230BD30B5041E71F1000404DB4FF060
:100460000044404264EB0101141E73F1000405DBFB
:100470001C464FF00043524263EB0403994208BF0D
:10048000904230BD30B50B460146002020220124A9
:1004900009E021FA02F59D4205D303FA02F5491B52
:1004A00004FA02F52844151EA2F10102F1DC30BD68
:1004B0002DE9F05F0546002092469B468846064699
:1004C000814640241BE0284641464746224600F02C
:1004D00020F853465A46C01A914110D31146184687
:1004E000224600F055F92D1A67EB01084F462246C7
:1004F0000120002100F04CF917EB00094E41201EAD
:10050000A4F10104DFDC484631462A464346BDE8F3
:10051000F09F202A04DB203A21FA02F000217047E4
:1005200021FA02F3D040C2F120029140084319465B
:10053000704710B5141E73F1000408DA401C41F135
:10054000000192185B411A4301D120F0010010BD57
:100550002DE9F04D92469B4611B1B1FA81F202E0CD
:10056000B0FA80F22032904600F012F904460F46AD
:1005700040EA0A0041EA0B0153465A46084313D0A9
:10058000114653EA010019D0C8F140025046FFF766
:10059000C0FF05460E4650465946424600F0F8F860
:1005A000084305D0012004E020463946BDE8F08D1F
:1005B0000020054346EAE0762C4337430A9863055A
:1005C000E40AA0EB08000022FD0A44EA47540A307E
:1005D00002D500200146E9E7010510196941DDE96E
:1005E000084500196941BDE8F04DA2E72DE9FE4F2D
:1005F000804681EA0300C00F0C46009021F00041C4
:1006000023F00045B8EB0200A94105D2404621463F
:1006100090461C460B46024623F00040104347D04C
:10062000270DC7F30A00C3F30A510290401A019044
:1006300040286BDAC3F3130040F4801B0098924605
:1006400020B10023D2EB030A63EB0B0B0198594650
:10065000C0F14002504600F09BF806460D46504659
:100660005946019A00F0A3F810EB080061410024FC
:1006700087EA115284EAE7731A4340D0009A62B3C2
:10068000019A012A4FEA075215DC001B61EB0201B7
:100690004FF0004202EA0752CDE90042001C41F54A
:1006A000801132462B46FFF753FF03B0BDE8F08FB1
:1006B00040462146F9E7001B61EB0201001C41F5B1
:1006C000801300185B412018A2F5001747EB0301C7
:1006D00040EAD570B6196D4111E06D084FEA360653
:1006E00045EAC0754FEA0752001B61EB0201001C8E
:1006F00041F5801149084FEA300000195141324656
:100700002B4603B0BDE8F04FFFF713BF009801225E
:1007100040000023D0EB020263EBE0730098214617
:100720004FEAE074B8EB000061EB0401E9E783F005
:1007300000435BE781F0004158E7C1F30A52C1F37F
:10074000130140F2FF3341F480119A4202DA002093
:100750000146704740F233439A42A2F2334202DC30
:100760005242FFF7D6BE00F013B80000064C074D0A
:1007700006E0E06840F0010394E807009847103471
:10078000AC42F6D3FFF704FDC4640008E46400083B
:10079000202A04DB203A00FA02F100207047914041
:1007A000C2F1200320FA03F3194390407047202A36
:1007B00006DBCB17203A41FA02F043EAE07306E089
:1007C00041FA02F3D040C2F1200291400843194699
:1007D000704721B1826842F00102826003E08268C2
:1007E00022F00102826070470021084A1168084A1D
:1007F0001140D0E900231A4383681A43C3681A439F
:100800001143044AC2F80413704700000423014056
:10081000E030FCFF0020014021B1826842F4807288
:10082000826003E0826822F480728260704721B1A6
:10083000826842F40072826003E0826822F40072EF
:100840008260704730B50246002000235068104C8B
:1008500020400D790C6844EA0524204350609068DC
:100860000C4C2040D1E903542C438D682C434D7926
:1008700044EA450420439060D06A20F470000C7D67
:10088000641EE4B2234340EA0350D06230BD00004E
:10089000FFFEFFFCFDF7FFC0F0B504460D4600204B
:1008A0000021092D11DDE068A5F10A0606EB4607D7
:1008B000072606FA07F18843A5F10A0606EB460665
:1008C00003FA06F10843E0600CE0206905EB4507F8
:1008D000072606FA07F1884305EB450603FA06F1F9
:1008E00008432061072A0FDA606B561E06EB860765
:1008F0001F2606FA07F18843561E06EB860605FA00
:1009000006F10843606322E00D2A0FDA206BD61F40
:1009100006EB86071F2606FA07F18843D61F06EB6B
:10092000860605FA06F10843206310E0E06AA2F1AA
:100930000D0606EB86071F2606FA07F18843A2F18B
:100940000D0606EB860605FA06F10843E062F0BDE7
:10095000816841F080418160704700210160017130
:1009600041718160C160016101210175704700BF63
:10097000FEE7000010B52DED028B9FED470AB0EEAB
:10098000408A0A2003F06CF94448808800EE100A7F
:10099000B8EE400ADFED420A80EE201A9FED410AD0
:1009A00021EE000A404880ED020A90ED020AF0EEC6
:1009B0000A0AB4EEE00AF1EE10FA11DC90ED020A38
:1009C000DFED3A0AB4EEE00AF1EE10FA1EDD90ED2A
:1009D000020AF0EE060AB4EEE00AF1EE10FA15D2C1
:1009E00003F00AFB0A2003F03BF92C48808800EE54
:1009F000100AB8EE400ADFED2A0A80EE201A9FEDB9
:100A0000290A21EE000A284880ED020A264890EDC6
:100A1000020AB4EEC80AF1EE10FA3AD203F0ECFA88
:100A200000242DE034B1012C07D0022C08D0032C77
:100A30000CD108E003F0E0FA08E003F009FB05E060
:100A400003F032FB02E003F05BFB00BF00BF601C61
:100A5000C4B2042C00DB00240A2003F001F90F4883
:100A6000808800EE100AB8EE400A9FED0D1AC0EE25
:100A7000010A9FED0C0A20EE800A0B4880ED020A65
:100A8000094890ED020AB4EEC80AF1EE10FAC9D393
:100A900000BFBDEC028B10BDE17A543F4C0000203A
:100AA00000008045333353407800002066662640BE
:100AB00070B5044605E01648056805F0450000B12C
:100AC00000E0F8E700BF042001F02CFB20B1042077
:100AD00001F022FB032070BD012001F023FB20B1B7
:100AE000012001F019FB0120F5E7094824380068CE
:100AF000A04201D01020EEE740F2FF5001F00CFBC5
:100B000003482038006808210840C0B2E3E700002D
:100B1000342C01402DE9F04180460D4616461F4613
:100B2000002419E004EB04100D4911F81000B04244
:100B300010D104EB041001EB40004078B84209D119
:100B400004EB04100A4602EB4000811C2A46404692
:100B500000F036F8601C84B2382CE3DBBDE8F0818D
:100B6000085A00082DE9F04180460D4616461F46FA
:100B700000241FE004EB840000EB44100F4911F83F
:100B80001000B04214D104EB840000EB441001EBE0
:100B900040004078B8420BD104EB840000EB4410D5
:100BA0000A4602EB4000811C2A46404600F008F845
:100BB000601C84B20A2CDDDBBDE8F081DE61000838
:100BC00010B5002304E011F8014B00F8014B5B1C49
:100BD0009342F8D310BD21B1026842F001020260D5
:100BE00003E0026822F001020260704710B50022A3
:100BF0000268134B1A40CC680B6823434C692343AB
:100C00008C692343CC6923430C6A23434C6A2343F6
:100C10008C6A23434C6B23438C6B23431A4302603F
:100C2000426922F00702D1E90B3423431A4342619F
:100C30000B6943604B6883608B68C36010BD000024
:100C40003F801CF0704700002DE9FF4704460D4629
:100C500016461F460B480088001B1FFA80F80948FB
:100C60004088401B1FFA80F9002018214B4642465D
:100C7000CDE90071CDE902602946204601F04CFF24
:100C8000BDE8FF871804002051B18200A2F1C042E4
:100C9000126842F001038200A2F1C042136009E031
:100CA0008200A2F1C0421268034B1A408300A3F1F4
:100CB000C0431A6070470000FEFF0F0030B50021EE
:100CC000002200230468A400A4F1C0442168424C1F
:100CD0002140D0E901452C43C5682C4305692C43CC
:100CE00045692C4385692C43C5692C43056A2C430F
:100CF000456A2C43856A2C43C56A2C43056B2C43FB
:100D000021430468A400A4F1C04421608468082C35
:100D10000BD10468A400A4F1C044246844F0400549
:100D20000468A400A4F1C04425600468641CA40005
:100D3000A4F1C044226802F04042446B2468456B31
:100D40006D6844EA0514456BAD6844EA0524456BBB
:100D5000AD8944EA0544456B2D8A44EA0554456B48
:100D60002D7D44EA0564456BAD692C43224304683C
:100D7000641CA400A4F1C0442260C46AB4F5804F8E
:100D800020D10468A400A4F1C044D4F80431134C69
:100D90002340846B2468856B6D6844EA0514856B79
:100DA000AD6844EA0524856BAD8944EA0544856B4A
:100DB000AD692C4323430468A400A4F1C044C4F8E3
:100DC000043107E06FF070450468A400A4F1C0444A
:100DD000C4F8045130BD00008000F7FF0000F0CFE0
:100DE0001CB50121262001F025F8062000900020E6
:100DF0008DF804008DF8060003208DF80500012011
:100E00008DF807006946124800F076F8012000903E
:100E10008DF8040069460E4800F06EF84FF400505B
:100E2000009001208DF8040069460A4800F064F83B
:100E30004FF40060009001208DF8040069460648D8
:100E400000F05AF80121024800F0C3F81CBD000070
:100E50000004024000080240001402401CB50121B9
:100E6000202000F0E7FF01208DF8040000208DF81D
:100E7000060001208DF8070002208DF80500000310
:100E8000009069461A4800F037F84FF4004000908F
:100E90006946174800F030F8102000906946154860
:100EA00000F02AF8402000906946124800F024F82B
:100EB0004FF48070009069460E4800F01DF84FF422
:100EC00000510B4800F083F84FF40041084800F04F
:100ED0007EF81021074800F07AF84021054800F01C
:100EE00076F84FF48071034800F071F81CBD0000E3
:100EF0000018024000040240F0B50A460021002319
:100F0000002400BF3DE0012505FA01F3156805EA5C
:100F100003049C4234D105684F000326BE40B5430C
:100F2000056015794E00B5400668354305601579B2
:100F3000012D02D01579022D16D185684F000326A8
:100F4000BE40B543856055794E00B540866835434F
:100F50008560456801268E40B543456045689679B1
:100F60008E40B6B235434560C5684F000326BE408B
:100F7000B543C560D5794E00B540C6683543C560F8
:100F8000491C1029BFD3F0BDF0B5002300244D0744
:100F9000ED0E02FA05F3CE1000F1200555F82650AB
:100FA0004E07F70E0F26BE40B543CF1000F12006C6
:100FB00046F82750CE1000F1200555F8265045EA96
:100FC0000304CE1000F1200545F82640F0BD418312
:100FD0007047018370472DE9F04705460C4690465F
:100FE0009A4695F80090681C05460778B9F1810F7C
:100FF00006DB402F04DBFF2F02D0B9F1FF0F0AD12F
:10100000002604E0002004F8010B701CC6B246451F
:10101000F8DBBDE8F087BAF10C0F06D0BAF1100F7B
:1010200004D0BAF1180F0FD107E00DE03B464A4655
:1010300041462046FFF76EFD06E03B464A464146E4
:101040002046FFF78FFD00BF00BF00BFE1E700BFF4
:10105000FEE7000070B5044600250D48438802886D
:101060000021084600F0B0FB09480088084949887B
:1010700000FB01F60021084600F086FB00F07EFC34
:1010800000BF02E0034804806D1CB542FAD370BD76
:10109000180400208000006C30B505467DB90020A2
:1010A0002B498871F02008804FF4A07048802C20D4
:1010B00008812A2048812B208881002444E0012DCA
:1010C0000FD1002022498871F02008804FF4A070D1
:1010D00048802C2008812A2048812B2088810324E5
:1010E00032E0022D0FD10120194988714FF4A07010
:1010F0000880F02048802C2008812A2048812B205D
:101100008881052420E0032D0FD10120104988712A
:101110004FF4A0700880F02048802C2008812A20FD
:1011200048812B20888106240EE000200849887120
:10113000F02008804FF4A07048802C2008812A20DD
:1011400048812B2088810024204600F0BDFA30BD64
:101150001804002010B503460C461148808849F257
:10116000413188421BD10E49488900F001FC181218
:1011700000F0F8FBD8B200F0F5FB0949888900F0CF
:10118000F7FB201200F0EEFBE0B200F0EBFB0448AE
:101190000089044908804FF0D840A0F8802010BD95
:1011A000180400207E00006C00B59FB001217A2059
:1011B00000F040FE0121084600F04CFE4FF40040D4
:1011C0001D9001208DF8780000208DF87A00022013
:1011D0008DF8790001208DF87B001DA9FE48FFF7EE
:1011E0008BFE4CF233701D9002208DF878000020A9
:1011F0008DF87A0003208DF8790001208DF87B00AE
:101200001DA9F648FFF778FE4FF680701D9002206A
:101210008DF8780000208DF87A0003208DF8790091
:1012200001208DF87B001DA9ED48FFF765FE4FF406
:1012300080501D9002208DF8780000208DF87A00F3
:1012400003208DF8790001208DF87B001DA9E54869
:10125000FFF752FE4FF480501D9002208DF8780069
:1012600000208DF87A0003208DF8790001208DF898
:101270007B001DA9DC48FFF73FFE0C220021D74868
:10128000FFF782FE0C220121D448FFF77DFE0C22DD
:101290000421D248FFF778FE0C220521CF48FFF742
:1012A00073FE0C220821CD48FFF76EFE0C220921A7
:1012B000CA48FFF769FE0C220A21C848FFF764FEFE
:1012C0000C220E21C548FFF75FFE0C220F21C348F8
:1012D000FFF75AFE0C220721C148FFF755FE0C22EA
:1012E0000821BF48FFF750FE0C220921BC48FFF738
:1012F0004BFE0C220A21BA48FFF746FE0C220B21B6
:10130000B748FFF741FE0C221146B548FFF73CFEF7
:101310000C220D21B248FFF737FE0C220E21B048F7
:10132000FFF732FE0C220F21AD48FFF72DFE0C22F5
:101330001146AC48FFF728FE0C221146AA48FFF7D9
:1013400023FE0F200790002008901820099000200D
:101350000A900B900C900D900820009000200190B6
:10136000082002900020039004900590069006202B
:101370000E9000200F9010901020119000201290DD
:1013800014901390159016904FF4805017900020F1
:1013900018904FF48040199000201A9007A81B90D5
:1013A000CDF870D00EA8FFF789FC01210620FFF7C9
:1013B0006BFC322002F054FC002000F079F98B49DC
:1013C000888008468088FF280ADB084680884FF618
:1013D000FF71884204D085488088B0F5134F25D12D
:1013E000D32000F0C5FA00F059F98049888000F058
:1013F00055F97E49888000F051F97C49888008467B
:1014000080884FF6FF7101EA00207849888000F05B
:1014100045F9764989880843744988800846808858
:1014200049F24131884201D01FB000BD6F48808829
:1014300049F2413188427CD1CF2000F099FA002056
:1014400000F090FAC12000F08DFA302000F08AFA06
:10145000ED2000F08DFA642000F084FA032000F003
:1014600081FA122000F07EFA812000F07BFAE82059
:1014700000F07EFA852000F075FA102000F072FA74
:101480007A2000F06FFACB2000F072FA392000F0D9
:1014900069FA2C2000F066FA002000F063FA34208C
:1014A00000F060FA022000F05DFAF72000F060FA28
:1014B000202000F057FAEA2000F05AFA002000F04D
:1014C00051FA002000F04EFAC02000F051FA1B2023
:1014D00000F048FAC12000F04BFA012000F042FA77
:1014E000C52000F045FA302000F03CFA302000F032
:1014F00039FAC72000F03CFAB72000F033FA362062
:1015000000F036FA482000F02DFA3A2000F030FAC8
:10151000552000F027FAB12000F02AFA002000F050
:1015200021FA1A2000F01EFAB62000F021FA0A2053
:1015300000E0A4E000F016FAA22000F013FAF22076
:1015400000F016FA002000F00DFA262000F010FA44
:10155000012000F007FAE02000F00AFA0F2000F066
:1015600001FA2A2000F0FEF9282000F0FBF90820FB
:1015700000F0F8F90E2000F0F5F9082000F0F2F97B
:10158000542000F0EFF9A92000F0ECF9432000F01E
:10159000E9F90A2000F0E6F90F2000F0E3F9002055
:1015A00000F0E0F9002000F0DDF9002000F0DAF9A9
:1015B000002000F0D7F9E12000F0DAF9002000F077
:1015C000D1F9152000F0CEF9172000F0CBF9072053
:1015D00000F0C8F911200BE000040240000C0240AA
:1015E00000100240001402400018024018040020BD
:1015F00000F0B8F9062000F0B5F92B2000F0B2F9A0
:10160000562000F0AFF93C2000F0ACF9052000F0C6
:10161000A9F9102000F0A6F90F2000F0A3F93F204F
:1016200000F0A0F93F2000F09DF90F2000F09AF99A
:101630002B2000F09DF9002000F094F9002000F02C
:1016400091F9012000F08EF93F2000F08BF92A205B
:1016500000F08EF9002000F085F9002000F082F9FA
:10166000002000F07FF9EF2000F07CF9112000F05D
:101670007FF9782002F0F4FA292000F079F90020AF
:10168000FFF70AFD0120044908604FF6FF70FFF7DD
:10169000E1FC00BFC8E60000BC82404208B5034838
:1016A00000880090BDF8000008BD00008000006CBC
:1016B00010B50446204600F05BF9052002F0ECFA74
:1016C000FFF7ECFF10BD000010B5044600232D48C5
:1016D000808849F24131884252D1082C1CD2DFE87F
:1016E00004F00406090C0F12151800BF14E043F0B3
:1016F000800311E043F040030EE043F0C0030BE031
:1017000043F0200308E043F0600305E043F0A0034A
:1017100002E043F0E00300BF00BF43F008013620C1
:1017200000F036F91749488900F022F9002000F04E
:1017300019F9002000F016F912490988491EC1F371
:101740000F2000F00FF90F490978491EC8B200F0C8
:1017500009F90C49888900F00BF9002000F002F922
:10176000002000F0FFF807494988491EC1F30F2007
:1017700000F0F8F803498978491EC8B200F0F2F881
:1017800010BD00001804002000B502460B460D48AD
:10179000808849F24131884213D10A49488900F0D2
:1017A000E7F8101200F0DEF8D0B200F0DBF80549DF
:1017B000888900F0DDF8181200F0D4F8D8B200F0F3
:1017C000D1F800BD18040020F0B504460D46A0185D
:1017D000401E86B2E818401E87B21348808849F23E
:1017E000413188421FD11049488900F0C1F82012C8
:1017F00000F0B8F8E0B200F0B5F8301200F0B2F83E
:10180000F0B200F0AFF80849888900F0B1F828126A
:1018100000F0A8F8E8B200F0A5F8381200F0A2F83D
:10182000F8B200F09FF8F0BD180400202DE9FC4F3D
:1018300080460F4615461C4601972046E31704EBE9
:101840005373DB1021464FEAE47C04EB5C7C4FEAE7
:10185000EC0CA4EBCC0CBCF1000F02D04FF0010C4F
:1018600001E04FF0000C6344224604EBD27C4FEAC7
:101870006C0C03FB0CF3DBB20093A946A5F120002E
:10188000C5B200265FE00C2C07D105EB45003049BE
:1018900001EB800010F806A013E0102C05D12D48B4
:1018A00000EB051010F806A00BE0182C07D105EB93
:1018B000C500294901EB800010F806A001E0BDE851
:1018C000FC8F4FF0000B38E00AF0800078B1B9F1DE
:1018D000010F06D14FF6FF7239464046FFF73AFC3A
:1018E0000DE0394640460B9AFFF734FC07E00C98B0
:1018F00028B91A48028839464046FFF72BFC4FEAC0
:101900004A604FEA106A781C87B215484088B8428E
:1019100000DCD4E70198381AA0420AD1019F08F1EF
:1019200001001FFA80F80E480088404500DCC6E739
:1019300006E00BF1010000F0FF0BBBF1080FC3DB69
:1019400000BF701CC6B2009886429CDB00BFB6E7A1
:1019500048420008BC460008AC4C00087200002059
:101960001804002001490880704700008000006CC6
:1019700001490880704700007E00006C0248008921
:101980000249088070470000180400207E00006CA7
:10199000034A10804FF0D842A2F880107047000030
:1019A0007E00006C1CB50121202000F043FA4FF4AA
:1019B000C060009001208DF8040000208DF8060022
:1019C00003208DF8050001208DF8070069460448C2
:1019D000FFF792FA4FF4C0610148FFF7FAFA1CBD15
:1019E0000014024070B500244F4890ED000ADFED6E
:1019F0004F0A20EE200A4E48D0ED000A20EE200AC1
:101A0000F7EE000A80EE801A9FED4A0A21EE000AE6
:101A100010EE105A2846FEF7F1FC474A03C29FED2C
:101A2000470B53EC102B444890ED000B51EC100B7E
:101A3000FEF710FD0CD89FED430B53EC102B3E48E6
:101A400090ED000B51EC100BFEF7ECFC00D200BF48
:101A50009FED3C0B53EC102B374890ED000B51ECF5
:101A6000100BFEF7F7FC0CD89FED380B53EC102B46
:101A7000314890ED000B51EC100BFEF7D3FC00D277
:101A800001249FED320B53EC102B2B4890ED000BF3
:101A900051EC100BFEF7DEFC0CD89FED2E0B53EC37
:101AA000102B254890ED000B51EC100BFEF7BAFC03
:101AB00000D202249FED270B53EC102B1E4890ED13
:101AC000000B51EC100BFEF7C5FC0CD89FED230B5F
:101AD00053EC102B184890ED000B51EC100BFEF757
:101AE000A1FC00D203249FED1D0B53EC102B1248D8
:101AF00090ED000B51EC100BFEF7ACFC0CD89FEDF9
:101B0000190B53EC102B0C4890ED000B51EC100B03
:101B1000FEF788FC00D204242046074991ED000B13
:101B200000F048FC70BD000048000020005E9749AE
:101B300010000020F90215501800002000000000DD
:101B40000000000000000000000024400000000031
:101B5000000059400000000000408F4000000000DD
:101B60000088C34000000000006AF84010B52DED69
:101B7000048B7748808800EE100AB8EE400ADFED4B
:101B8000750A80EE201A9FED740A21EE000A734850
:101B900080ED020AFEF7EEFE6D48808800EE100A26
:101BA000B8EE400ADFED6B0A80EE201A9FED6A0A5C
:101BB00021EE000A694880ED020A00249FED680AC0
:101BC000B0EE408A00BF1BE0644890ED020A654811
:101BD000D0ED000A20EE200A6048D0ED020AB1EEF6
:101BE000041A71EE600A80EE201A5F4880ED001A38
:101BF00090ED000A38EE000AB0EE408A601CC4B2D4
:101C0000642CE1DB9FED590AC8EE000A5648C0ED8E
:101C1000000A5748007804287ED1534890ED000A06
:101C2000DFED540AB4EEE00AF1EE10FA10DD90EDAB
:101C3000000ADFED510AB4EEE00AF1EE10FA07D81F
:101C400090ED000ADFED4D0A30EE600A80ED000AEB
:101C5000454890ED000ADFED480AB4EEE00AF1EEE7
:101C600010FA10DD90ED000ADFED450AB4EEE00A4F
:101C7000F1EE10FA07D890ED000ADFED420A30EEDF
:101C8000600A80ED000A384890ED000ADFED3C0A5A
:101C9000B4EEE00AF1EE10FA10DD90ED000ADFED8F
:101CA0003A0AB4EEE00AF1EE10FA07D890ED000A15
:101CB000DFED360A30EE600A80ED000A2A4890ED2A
:101CC000000ADFED310AB4EEE00AF1EE10FA10DDA1
:101CD00090ED000ADFED2E0AB4EEE00AF1EE10FA04
:101CE00007D890ED000ADFED270A30EE200A80EDDC
:101CF000000A1D4890ED000ADFED260AB4EEE00A66
:101D0000F1EE10FA12DD90ED000ADFED230AB4EED9
:101D1000E00AF1EE10FA00E008E007D890ED000AC2
:101D2000DFED140A30EE200A80ED000A0E4800684C
:101D3000FEF764FB41EC190B0D480078B0EE490A40
:101D4000F0EE690A00F040FDBDEC048B10BD000010
:101D50004C000020000080453333534078000020C1
:101D60000000000028000020300000200000C842D1
:101D70003400002000401C4600803B4600401C45CB
:101D800000F827470000FA4400A85E4700007A44A4
:101D900000A08C4700948E470050C34700BFFEE769
:101DA0007047000070B5002100230F22C4781CB3D7
:101DB000174C246804F4E064C4F5E064C4F307211C
:101DC000C1F10404E3B20A4144789C40E1B2847852
:101DD000144021430C07210E0E4C05786155047800
:101DE00004F01F050124AC4005786D11AD0005F12C
:101DF000E025C5F8004109E0047804F01F0501243E
:101E0000AC40054D0678761145F8264070BD0000BF
:101E10000CED00E000E400E080E100E00249014355
:101E2000024A1160704700000000FA050CED00E066
:101E30007047000029B1064A12680243044B1A6039
:101E400004E0034A12688243014B1A6070470000A5
:101E50003038024029B1064A12680243044B1A6026
:101E600004E0034A12688243014B1A607047000085
:101E70003838024029B1064A12680243044B1A60FE
:101E800004E0034A12688243014B1A607047000065
:101E90004038024029B1064A12680243044B1A60D6
:101EA00004E0034A12688243014B1A607047000045
:101EB00044380240F0B5002100220024022500260B
:101EC0000223324F3F6807F00C0121B1042905D0ED
:101ED000082937D105E02E4F076036E02D4F076007
:101EE00033E02A4F3F1F3F68C7F38056274F3F1FFD
:101EF0003F6807F03F036EB1264FB7FBF3F7DFF8FB
:101F00008CC0ACF1040CDCF800C0CCF3881C07FBDF
:101F10000CF40CE01E4FB7FBF3F7DFF870C0ACF128
:101F2000040CDCF800C0CCF3881C07FB0CF4174F42
:101F30003F1F3F68C7F301477F1C7D00B4FBF5F7E7
:101F4000076002E0124F076000BF00BF0F4F3F68FD
:101F500007F0F0010909104F7A5C0768D740476025
:101F60000A4F3F6807F4E051890A0B4F7A5C4768D3
:101F7000D7408760054F3F6807F46041490B064F23
:101F80007A5C4768D740C760F0BD0000083802405F
:101F90000024F40000127A00000000201CB501218A
:101FA0000220FFF747FF0120009003208DF8040076
:101FB00000208DF8070069461148FEF79DFF0121BA
:101FC0000220FFF737FF0220009003208DF8040065
:101FD00000208DF8070069460948FEF78DFF0121B2
:101FE0000846FFF727FF4020009003208DF80400EB
:101FF00000208DF8070069460248FEF77DFF1CBDF2
:10200000000402400000024000B599B0012188059B
:10201000FFF710FF3A480B903A480C9000200D90C3
:1020200003200E9000200F904FF48060109040002D
:1020300011908000129040111390400214900020E3
:102040001590012016900020179018900A900AA968
:102050002D48FEF7CBFD01212B48FEF7BCFD0121E9
:102060000802FFF717FF002000904FF48030019026
:10207000002002904FF4706003906846FEF7B4FBB6
:1020800004A8FEF76AFC0020049001208DF81400DB
:102090008DF81500002006900790089003208DF819
:1020A000240004A916484C38FEF7CCFB002301227B
:1020B000082113484C38FEF7EFFB002302220921C8
:1020C0000F484C38FEF7E8FB0023032206210C489A
:1020D0004C38FEF7E1FB012109484C38FEF7A7FB1D
:1020E000012107484C38FEF797FB012104484C3882
:1020F000FEF76FFB02484C38FEF72AFC19B000BD12
:102100004C2001404C0000201064024010B5FFF745
:1021100045FFFFF779FF10BD0149086070470000D7
:10212000382C014001460020034A12680A400AB1D7
:10213000012000E000207047342C014010B500F071
:1021400017F810BD0021094B02681A601A1D1168AA
:102150006FF30A01D0E901231A43C3681A430369E4
:102160001A431143014A121D11607047082C0140A7
:1021700010B54FF48070FFF7D5FF78B34C48007866
:10218000012814D100204B4908600C2048604020F1
:1021900088600020C8604FF4806008610846FFF73F
:1021A000D1FF0C20FEF784FC4349087002E00020B8
:1021B000414908704148006840F480703F49086018
:1021C000081D00684CF23A3188433C49091D0860FB
:1021D00001203B4908703848007810BDFFE7022015
:1021E000FFF7A0FF78B10220FFF796FF3348001DEC
:1021F00000684CF23A3188433049091D08600220DA
:102200002D490870E9E70820FFF78CFF78B1082016
:10221000FFF782FF2948001D00684CF23A318843DD
:102220002649091D0860042023490870D5E72020AD
:10223000FFF778FF78B12020FFF76EFF1F48001DE1
:1022400000684CF23A3188431C49091D0860062099
:1022500019490870C1E71020FFF764FF78B110201A
:10226000FFF75AFF1548001D00684CF23A318843C9
:102270001249091D086005200F490870ADE74FF4A9
:102280000070FFF74FFF80B14FF40070FFF744FF7D
:102290000A48001D00684CF23A3188430749091D7D
:1022A000086007200449087097E7002095E70000C0
:1022B00069000020700100206A000020382C0140D5
:1022C0006B000020704700000CB5002001900090CA
:1022D0003448006840F480303249086000BF31481B
:1022E000006800F4003000900198401C01900098B4
:1022F00018B90198B0F5A04FF1D12A48006800F450
:10230000003010B10120009001E000200090009802
:10231000012846D123484030006840F080502149D0
:10232000403108602048006840F440401E49086081
:102330001C48083000681B490831086008460068DE
:1023400040F4004008600846006840F4A05008606F
:102350001648091F0860081F006840F08070091FB8
:10236000086000BF0F48006800F000700028F9D036
:1023700040F205700E4908600A480830006820F0F5
:1023800003000849083108600846006840F0020070
:10239000086000BF03480830006800F00C000828FF
:1023A000F8D10CBD003802400070004008544007CE
:1023B000003C02402DE9F04F2DED088B83B0B0EECC
:1023C000408AF0EE608A0446C0A103C9CDE901014C
:1023D000002000901CB1012C01D0022C7ED14CB900
:1023E0004FF0640B4FF0020851EC180BFDF7E7FFBC
:1023F00000F0FF0A012C10D14FF00A0BA0469FED10
:10240000B50B53EC102B51EC180BFDF74BFF41ECC7
:10241000190BFDF7D4FF00F0FF0A022C11D14FF089
:10242000010B4FF000089FEDAD0B53EC102B51EC5E
:10243000180BFDF737FF41EC190BFDF7C0FF00F05B
:10244000FF0ABAF1020F11DB5846FDF7ABFF41EC72
:102450001A0B53EC182BFDF7B3FE41EC190BFDF7EB
:10246000AEFF0546C8F10400C7B21AE05846FDF7B2
:1024700099FF41EC1B0B53EC182BFDF7A1FE41EC2F
:102480001A0B9FED940B53EC102BFDF799FE41ECCA
:10249000190BFDF794FF054608F10100C0F1040097
:1024A000C7B24FF47A7095FBF0F03030C0B28DF8BF
:1024B0000000642095FBF0F00A2190FBF1F201FB93
:1024C00012003030C0B28DF801000A2095FBF0F008
:1024D00090FBF1F201FB1200303000E032E0C0B2BC
:1024E0008DF802000A2095FBF0F100FB115030300E
:1024F000C0B28DF803004FF00009002611E0BE4283
:1025000008D01DF8090001A9885509F1010000F063
:10251000FF0904E0032F02DC2E2001A98855701C5E
:10252000C6B2052EEBDB01AB4FF4784278213020A8
:10253000FEF78AFB6BA34FF4784278217020FEF7F8
:1025400083FB00BF032C03D0042C01D0052C7CD1CD
:10255000032C10D14FF0010BA0469FED630B53EC01
:10256000102B51EC180BFDF79DFE41EC190BFDF7FC
:1025700026FF00F0FF0A042C11D14FF00A0B4FF098
:1025800002089FED5B0B53EC102B51EC180BFDF781
:1025900089FE41EC190BFDF712FF00F0FF0A052C34
:1025A00011D14FF0640B4FF001089FED530B53EC2A
:1025B000102B51EC180BFDF775FE41EC190BFDF7D4
:1025C000FEFE00F0FF0ABAF1020F15DB0BEB8B01E8
:1025D0004800FDF7D6FE41EC1A0B53EC1A2B51ECD8
:1025E000180BFDF75FFEFDF7EAFE0546A8F10100B6
:1025F000C0F10400C7B212E05846FDF7D3FE41EC2B
:102600001A0B53EC1A2B51EC180BFDF74BFE41EC57
:10261000190BFDF7D4FE0546C8F10400C7B24FF40C
:102620007A7095FBF0F03030C0B28DF80000642075
:1026300095FBF0F00A2190FBF1F201FB1200303023
:10264000C0B28DF801000A2000E039E095FBF0F0FF
:1026500090FBF1F201FB12003030C0B28DF80200A5
:102660000A2095FBF0F100FB11503030C0B28DF81C
:1026700003004FF00009002611E0BE4208D01DF80B
:10268000090001A9885509F1010000F0FF0904E0E3
:10269000032F02DC2E2001A98855701CC6B2052E1E
:1026A000EBDB01AB4FF4784278213020FEF7CCFA17
:1026B00013A34FF4784278217020FEF7C5FA00BFCB
:1026C00003B0BDEC088BBDE8F08F000001010101F3
:1026D0000100000000000000000024400000000095
:1026E000000059406E6600000000000000408F406E
:1026F000000000000088C34000000000006AF840AD
:10270000756600002DE9F04F93B005468846914666
:102710001C46AB462046E21704EB5272D21021460B
:10272000E31704EB5373DB10A4EBC3030BB10123DA
:1027300000E000231A446243D7B20C2C06D0102CC0
:1027400004D0182C02D013B0BDE8F08F23463A46CF
:1027500069464846FEF73FFC00262FE01DF80600BC
:1027600012904FF0000A24E0129800F0800028B187
:10277000414628461C9AFEF7EDFC07E01D9828B953
:102780001048028841462846FEF7E4FC12984006AD
:10279000000E1290681C85B2A5EB0B00A04204D17C
:1027A0005D4608F101001FFA80F80AF1010000F00F
:1027B000FF0ABAF1080FD7DB701CC6B2BE42CDDBF0
:1027C00000BFC0E7720000202DE9F04F2DED088B0F
:1027D00083B0B0EE408AF0EE608A0446C0A103C91F
:1027E000CDE90101002000901CB1012C01D0022C88
:1027F0007ED14CB94FF0640B4FF0020851EC180B2E
:10280000FDF7DDFD00F0FF0A012C10D14FF00A0B9F
:10281000A0469FEDB50B53EC102B51EC180BFDF7B8
:1028200041FD41EC190BFDF7CAFD00F0FF0A022C37
:1028300011D14FF0010B4FF000089FEDAD0B53ECA1
:10284000102B51EC180BFDF72DFD41EC190BFDF78A
:10285000B6FD00F0FF0ABAF1020F11DB5846FDF792
:10286000A1FD41EC1A0B53EC182BFDF7A9FC41EC30
:10287000190BFDF7A4FD0546C8F10400C7B21AE024
:102880005846FDF78FFD41EC1B0B53EC182BFDF761
:1028900097FC41EC1A0B9FED940B53EC102BFDF7BA
:1028A0008FFC41EC190BFDF78AFD054608F101008C
:1028B000C0F10400C7B24FF47A7095FBF0F03030ED
:1028C000C0B28DF80000642095FBF0F00A2190FB67
:1028D000F1F201FB12003030C0B28DF801000A2085
:1028E00095FBF0F090FBF1F201FB1200303000E0BC
:1028F00032E0C0B28DF802000A2095FBF0F100FB37
:1029000011503030C0B28DF803004FF0000900269E
:1029100011E0BE4208D01DF8090001A9885509F14F
:10292000010000F0FF0904E0032F02DC2E2001A9C2
:102930008855701CC6B2052EEBDB01AB4FF4784214
:1029400050213020FEF780F96BA34FF478425021DC
:102950007020FEF779F900BF032C03D0042C01D0BE
:10296000052C7CD1032C10D14FF0010BA0469FED1C
:10297000630B53EC102B51EC180BFDF793FC41EC5F
:10298000190BFDF71CFD00F0FF0A042C11D14FF0CC
:102990000A0B4FF002089FED5B0B53EC102B51EC30
:1029A000180BFDF77FFC41EC190BFDF708FD00F05B
:1029B000FF0A052C11D14FF0640B4FF001089FED79
:1029C000530B53EC102B51EC180BFDF76BFC41EC47
:1029D000190BFDF7F4FC00F0FF0ABAF1020F15DB4A
:1029E0000BEB8B014800FDF7CCFC41EC1A0B53ECD0
:1029F0001A2B51EC180BFDF755FCFDF7E0FC0546D2
:102A0000A8F10100C0F10400C7B212E05846FDF77A
:102A1000C9FC41EC1A0B53EC1A2B51EC180BFDF7C7
:102A200041FC41EC190BFDF7CAFC0546C8F1040056
:102A3000C7B24FF47A7095FBF0F03030C0B28DF829
:102A40000000642095FBF0F00A2190FBF1F201FBFD
:102A500012003030C0B28DF801000A2000E039E0E9
:102A600095FBF0F090FBF1F201FB12003030C0B2A8
:102A70008DF802000A2095FBF0F100FB1150303078
:102A8000C0B28DF803004FF00009002611E0BE42ED
:102A900008D01DF8090001A9885509F1010000F0CE
:102AA000FF0904E0032F02DC2E2001A98855701CC9
:102AB000C6B2052EEBDB01AB4FF47842502130203B
:102AC000FEF7C2F813A34FF4784250217020FEF7AE
:102AD000BBF800BF03B0BDEC088BBDE8F08F000071
:102AE000010101010100000000000000000024407D
:102AF000000000000000594020A6B80000000000BF
:102B000000408F40000000000088C340000000002B
:102B1000006AF8404BA6B8002DE9FF5F07460E4655
:102B200091469A46DDE90F4B0E9DB846039600206C
:102B300002904EE0029878BB2878802802DD0120C0
:102B4000029046E004EBD47108EB0902A2EB6101AC
:102B5000B94202DA301986B2474603985044001B46
:102B6000B04200DA38E028780D2804D1301986B256
:102B700047466D1C08E01198CDE900B02A7823463D
:102B800031463846FEF752FE6D1C204604EBD071EC
:102B900007EB61018FB21CE0FFE70020029008EB19
:102BA0000900001BB84202DA301986B24746039882
:102BB0005044001BB04200DA0EE0119823462A462A
:102BC0003146CDE900B03846FFF79CFDAD1C381901
:102BD00087B228780028ADD100BFBDE8FF9F042848
:102BE00008D14FF0E021096941F004014FF0E022E3
:102BF000116107E04FF0E021096921F004014FF075
:102C0000E02211617047704710B51548006840F424
:102C10007000134908601348006840F00100114932
:102C2000086000200F49083108600E4800680E490E
:102C300008400C4908600D48091D0860081F00681D
:102C400020F48020091F0860002006490C3108602C
:102C5000FFF73AFB4FF0006001498039086010BD72
:102C600088ED00E000380240FFFFF6FE103000243F
:102C7000F0B50C46154600210022068C4FF6FE7773
:102C80003E400684018B028C4FF60C7631407E1C50
:102C900006EA03162E4331434FF6F576324044F0F0
:102CA0000106324301830284F0BDF0B50C4615469F
:102CB000002100220026078C4FF6EF7C07EA0C0764
:102CC0000784018B028C4FF6FF7707EA041640F663
:102CD000FF4739404FF6FF7707EA033739434FF68E
:102CE000FF7707EA052739434FF65F773A4046F00A
:102CF00010073A4301830284F0BD000010B50221A1
:102D0000064800F011F8054800F01DF80449088055
:102D1000024800F01BF80349088010BD0004014080
:102D20004200002040000020CA430282704721B1C7
:102D3000028842F00102028004E002884FF6FE732E
:102D40001A40028070470146486B70470146886B05
:102D500070471AB183890B43838102E083898B43D7
:102D60008381704770B5002400220023058C4FF644
:102D7000FE7635400584028C8388048B4FF68F7570
:102D80002C40B51E2C400D882C43751E2A408D8981
:102D90002A434D882A43104DA84202D00F4DA84225
:102DA00013D14FF6F7752A40CD892A434FF6FB75AC
:102DB0002A408D882A434FF6FF652B404FF6FF557A
:102DC0002B400D8A2B434D8A2B43838004838D68CF
:102DD0004563028470BD0000000001400004014012
:102DE0000A460021018B4FF6F77319401143018306
:102DF00070472DE9F04105460C4600260127608802
:102E000008B9022600E00026A088012801D1022787
:102E100000E001272088A0B92389A288618828467C
:102E2000FFF726FFE188284600F0BFF823893A46DD
:102E300031462846FFF739FFE188284600F0BEF802
:102E400013E02389A28861882846FFF72EFFE188D6
:102E5000284600F0B3F823893A4631462846FFF762
:102E600007FFE188284600F0A0F8BDE8F0810000E7
:102E700000B587B001210220FFF70CF84FF6FE7075
:102E8000059040F28F60ADF810000020ADF8120000
:102E900004A91E4800F0A0F80020ADF80400ADF829
:102EA00006000120ADF808000020ADF80A00ADF8DA
:102EB0000C0001A91548FFF79CFF0420ADF80400A1
:102EC0000220ADF80600ADF808000020ADF80A00B9
:102ED000ADF80C0001A90D48FFF78BFF50210B48FE
:102EE00000F048F80421094800F056F8802107480E
:102EF00000F049F801210548FFF719FF01220221DE
:102F00000248FFF726FF07B000BD000000040140A3
:102F100000B589B001210846FEF7ACFF42F20F7000
:102F2000079040F24730ADF818000020ADF82000BF
:102F3000ADF81A0006A94FF0804000F04DF860206F
:102F4000ADF804000120ADF8060040F6B73003905C
:102F50000020ADF8100001A94FF08040FFF702FFFC
:102F60000821C806FFF73CFF01218807FFF7DFFEB5
:102F700009B000BD0A46002101894FF68F73194040
:102F800011430181704702894FF67F731A40028115
:102F900002890A430281704702894FF6F8731A408A
:102FA000028102890A4302817047028B4FF6F37354
:102FB0001A400283028B0A4302837047028B4FF24E
:102FC000FF331A400283028B4FF6FF7303EA01239B
:102FD0001A4302837047000000220288184B98426F
:102FE0000ED0184B98420BD0B0F1804F08D0164B42
:102FF000984205D0154B984202D0154B984204D107
:103000004FF68F731A404B881A43124B984207D0E1
:10301000114B984204D04FF6FF431A400B891A43D4
:1030200002804B68C3620B880385054B984202D02F
:10303000044B984201D18B7A038601238382704727
:10304000000001400004014000040040000800406E
:10305000000C0040001000400014004010B500F0CB
:1030600007F800F035F8FFF753FFFFF701FF10BD39
:103070001CB501210846FEF7DDFE01210420FEF704
:10308000D9FE012205211048FDF77EFF032206210B
:103090000E48FDF779FF2020009002208DF80400F3
:1030A00000208DF806008DF8070003208DF805003C
:1030B00069460548FDF720FF402000906946034817
:1030C000FDF71AFF1CBD000000000240000802408E
:1030D00008B54FF4E060FEF7A1FE2E208DF8000049
:1030E00000208DF8010003208DF8020001208DF8EA
:1030F00003006846FEF756FE08BD000010B540F21A
:1031000025511D4800F053F810B31B4800F008F992
:10311000C4B21A48008800F40040C8B917480088B3
:1031200000F4804060B10A2C03D0002013490880CD
:1031300020E01248008840F400401049088019E05F
:103140000D2C06D10D48008840F480400B490880C2
:1031500010E00A480088C0F30D0009490C540748E4
:103160000088401C0549088008460088C72801DD02
:103170000020088010BD0000001001405C0000200D
:103180009000002001F40072B2F5007F00D100BF72
:10319000CA430280704721B1828942F40052828181
:1031A00004E082894DF6FF731A408281704770B542
:1031B0000246002400230025002040F66A16B14292
:1031C00000D100BFC1F3421501F01F03012606FA2A
:1031D00003F3012D02D19689334006E0022D02D17E
:1031E000168A334001E0968A33400C12012606FA13
:1031F00004F41688344013B10CB1012000E0002023
:1032000070BDF0B50346002400260025002040F6DE
:103210006A17B94200D100BF1846C1F3421401F049
:103220001F06012707FA06F5012C01D10C3004E036
:10323000022C01D1103000E014301AB107682F437E
:10324000076002E00768AF430760F0BD2DE9FF4764
:1032500005460E460024A14600BFA046B08900B135
:1032600000BF2C8A24F44054F08804432C82AC899B
:1032700041F20C608443B088318908437189084366
:103280000443AC81AC8A24F44074B0890443AC821A
:103290006846FEF70FFE2048854202D01F4885424F
:1032A00002D1DDF80C9001E0DDF80890A88900F467
:1032B000004040B109EBC90000EB0910316849003A
:1032C000B0FBF1F707E009EBC90000EB091031682A
:1032D0008900B0FBF1F76420B7FBF0F0040120098E
:1032E000642101FB1078A88900F4004040B132202D
:1032F00000EBC800B0FBF1F000F00700044308E069
:10330000322000EB08106421B0FBF1F000F00F0058
:1033100004432C81BDE8FF870010014000140140E8
:1033200001468888C0F30800704700BFFEE7000030
:103330000FB4054B10B503A9044A029800F0DAF85F
:1033400010BC5DF814FB0000313D0008580000205F
:1033500002E008C8121F08C1002AFAD1704770475E
:10336000002001E001C1121F002AFBD170470000BC
:103370002DE9FF5F82B00021DDE90430020DDDF8A8
:1033800040B0034318D044F61050A2F2FF3242433B
:103390001514119801281FD0A5EB0B00401C5FEA03
:1033A000000A4FF000064E4FDFF83891B046504605
:1033B00015D5CAF1000413E0119801244AA301288D
:1033C00001D16FEA0B010298119AC0E90031C0E9FE
:1033D000024206B0BDE8F09FCBF10000DFE70446F3
:1033E0000021404A491842EB0450CDE9001012E098
:1033F000E00707D032463B4640464946FCF7E0FE30
:103400008046894632463B4610461946FCF7D8FEB0
:1034100006460F466410002CEAD1DDE90401DDE91F
:103420000023BAF1000F06DAFCF7CAFE42464B460B
:10343000FCF7C6FE05E0FCF735FF42464B46FCF7BD
:1034400031FF04460E460022284BFDF703F803D84F
:103450004FF0FF30014607E00022254B2046314661
:10346000FDF7C4F8FDF769F9102409E0002C0ADB28
:103470000A220023FDF71CF8039B30321A55641E04
:1034800050EA0102F2D1641C039AC4F111031444FE
:10349000119A012A03D0012208430DD10AE0084302
:1034A00004D000204FF0110B119072E7A3EB0B0535
:1034B0006D1E0DE05B4504DD4FF0000205F10105D6
:1034C00004E003DA4FF00002A5F10105002AECD078
:1034D00002981199C0E90231C0E9004579E700007E
:1034E000000014400000F03F300000000000F043F6
:1034F0000000E03F2DE9FF4F95B09B468946064608
:1035000000250FE2252877D100242746F84A01211B
:10351000059400E0044316F8013F203B01FA03F054
:103520001042F7D130782A2811D06FF02F0330786D
:10353000A0F13002092A16D8059A44F0020402EBE1
:10354000820203EB42021044761C0590EFE759F823
:10355000042B0592002A03DA504244F400540590EB
:1035600044F00204761C30782E2816D116F8010F8C
:1035700044F004042A280DD06FF02F023078A0F117
:103580003003092B09D807EB870302EB4303C71865
:10359000761CF3E759F8047B761C30786C280FD042
:1035A00006DC4C2817D068280DD06A2814D104E016
:1035B000742810D07A280FD10DE044F400140AE0EA
:1035C00044F4801401E044F440147278824202D141
:1035D00004F58014761C761C307866280BD013DC3A
:1035E000582877D009DC002875D04528F6D0462821
:1035F000F4D047281AD19DE118E0632835D064281B
:1036000079D0652812D195E1702873D008DC67283D
:10361000F1D069286FD06E280DD06F2806D1B5E0A3
:1036200073282CD0752875D0782874D05A461799ED
:1036300090476D1C75E1C4F30250022809D003289D
:103640000DD0D9F8001004280DD00D6009F104093F
:1036500067E1D9F80010EA17C1E90052F6E7D9F896
:1036600000100D80F2E70D70F0E719F8041B8DF8DB
:10367000001000208DF80100EA46012003E059F80F
:1036800004AB4FF0FF3061074FF0000102D40DE0B2
:1036900008F101018846B9420FDA8045F8DB1AF8D3
:1036A00008100029F4D108E008F1010188468142A0
:1036B000FADB1AF808100029F6D105985B46A0EB52
:1036C000080721463846179A00F094FA284400EB80
:1036D000080507E04DE029E10DE01AF8010B5A4614
:1036E00017999047B8F10108F7D25B462146384652
:1036F000179A13E142E00A220092C4F302524FF0FB
:10370000000A022A08D059F804CB032A4FEAEC71C8
:103710000AD00DE029E02AE009F1070121F00702B3
:10372000F2E802C1914609E00FFA8CFC4FEAEC7115
:10373000042A03D14FFA8CFC4FEAEC71002907DA16
:103740000A460021DCF1000C61EB02012D2202E0AF
:10375000220504D52B228DF80420012203E0E20784
:1037600001D02022F7E7904659E00A2102E010221A
:103770000DE010214FF0000A00910BE010224FF0F5
:10378000000A44F004040827009203E008224FF0E6
:10379000000A0092C4F30252022A05D059F804CB61
:1037A0000021032A08D009E009F1070121F00702EE
:1037B000F2E802C1914605E01FFA8CFC042A01D10F
:1037C0000CF0FF0C4FF00008220728D5702806D017
:1037D000009B83F0100353EA0A0305D00EE0402259
:1037E0008DF80420012208E05CEA010206D03022B4
:1037F0008DF804208DF8050002229046009B83F08E
:10380000080353EA0A030AD15CEA010201D1620704
:1038100005D530228DF804204FF001087F1E58286E
:1038200004D034A003900EA802900DE036A0F9E772
:1038300053466046009AFCF73BFE84460398825C40
:103840000298401E029002705CEA0100F0D10298DA
:1038500006A9081A00F1200A600702D524F4803472
:1038600000E00127574502DDA7EB0A0000E0002039
:1038700000EB0A01009005984144401A0590E003CE
:1038800006D45B462146179A059800F0B3F9054423
:10389000002706E001A85A46C05D179990476D1CA5
:1038A0007F1C4745F6DBE0030CD55B462146179AA3
:1038B000059800F09FF9054404E030205A46179916
:1038C00090476D1C0099481E00900029F5DC08E027
:1038D000029802995A460078491C0291179990471C
:1038E0006D1CBAF10001AAF1010AF1DC65E10000EA
:1038F00009280100303132333435363738396162C6
:103900006364656600000000303132333435363789
:1039100038394142434445460000000000F058F960
:103920000544761C307800287FF4ECAD19B02846A9
:10393000BDE8F08F620700D4062709F1070222F0E4
:10394000070CFCE80223E14603F000485FEA080C9C
:1039500002D00FF2702C0DE05FEA045C02D50FF28A
:10396000682C07E05FEAC47C02D00FF2602C01E013
:10397000AFF2700C4FF0FF3823F00043CDF850C089
:1039800065280CD006DC452809D046281DD04728DC
:103990003DD13DE0662818D067287ED138E000216F
:1039A000112F01DB112000E0781CCDE9000106A9F0
:1039B0000EA8FFF7DDFCDDE90F010E9A039100214F
:1039C000009207F1010A04914DE04FF0004000978A
:1039D000CDE9011006A90EA8FFF7CAFCDDE90F0228
:1039E00003920E9B11990022DDF80CA00093049223
:1039F00011B9791C00EB010AB7EB0A0004D4C0F13D
:103A0000FF3007F1010A0490AAEB0700019044E09F
:103A1000012F00DA01270021112F01DD112000E024
:103A20003846CDE9000106A90EA8FFF7A1FCDDE9A3
:103A30000F010E9A0391002104910092BA462107CA
:103A40000CD40399514500DA8A46BAF1010F05DD1D
:103A5000009AAAF10101515C302908D0B84202DA7B
:103A600010F1040F06DA0121CDE9011015E0AAF1E9
:103A70000101E9E7002805DC049901440491AAEB5F
:103A8000000102E0411C514500DD8A460499401ABC
:103A9000401C01904FF000400290200704D4019890
:103AA000504501DBCDF8048000208DF84F000298CE
:103AB0000DF14F07B0F1004F25D02B200E9002984A
:103AC0004FF0020800280CDA404202902D200E90A0
:103AD00007E00A210298FCF7D5FC3031029007F884
:103AE000011DB8F10001A8F10108F2DC02980028DC
:103AF000EFD1791E0E980870307800F0200040F069
:103B0000450007F8020D12A8C01B00F10708149821
:103B1000007800B1012000EB0A01019801EBE0718F
:103B200005984144401A401E0590E00306D45B46C8
:103B30002146179A059800F05DF80544149800781E
:103B400018B15A46179990476D1CE00324D55B467F
:103B50002146179A059800F04DF805441CE004989A
:103B6000002807DBDDE90301884203DD0098405CA3
:103B7000179901E0179930205A469047049805F1AB
:103B80000105401C04900198401E019004D12E2094
:103B90005A46179990476D1CBAF10001AAF1010A23
:103BA000DDDC05E017F8010B5A46179990476D1CAC
:103BB000B8F10001A8F10108F4DC5B462146179A30
:103BC0000598ABE62D0000002B000000200000004F
:103BD0002DE9F041044600251E461746880404D40A
:103BE00005E039462020B0476D1C641EF9D52846F3
:103BF000BDE8F0812DE9F041044600251E469046BF
:103C0000C80301D5302700E02027880404D505E04B
:103C100041463846B0476D1C641EF9D52846BDE8BC
:103C2000F081000010B504466FF00400FEF7D7FFE6
:103C3000E11704EB5171C1F3C701074A1170104637
:103C4000007800EB4001C1EBC0104FF6FF7101EAB4
:103C5000C0000249088010BD52000020540000201E
:103C600070B504464FF4077094FBF0F0C6B24FF401
:103C7000077094FBF0F100FB114085B205E04FF4B2
:103C8000077000F02FF8701EC6B2002EF7D115B1E4
:103C9000284600F027F870BD0146114A12784A43C1
:103CA0004FF0E0235A6100229A611A46126942F0ED
:103CB00001021A6100BF4FF0E022106900F001021A
:103CC0001AB100F48032002AF5D04FF0E0221269D8
:103CD00022F001024FF0E0231A6100229A6170473E
:103CE000520000200146114A12884A434FF0E02357
:103CF0005A6100229A611A46126942F001021A6161
:103D000000BF4FF0E022106900F001021AB100F488
:103D10008032002AF5D04FF0E022126922F0010231
:103D20004FF0E0231A6100229A617047540000208E
:103D300000BF054A128802F04002002AF9D0C2B240
:103D4000014B9A807047000000100140174800881E
:103D500000B3174800886421484300EE100AF8EECB
:103D6000C00A1248008800EE100AB8EE400A80EE41
:103D7000801A104880ED001A0C48008800EE100AE6
:103D8000B8EE400ADFED0C0A80EE801A0B4880ED99
:103D9000001A09E09FED0A0A064880ED000A9FED2F
:103DA000080A064880ED000A704700004200002023
:103DB00040000020440000200050C347480000207D
:103DC000000000002DED048B82B04FF4A060FEF7E0
:103DD00025F8A820FFF726FF4FF4E13000F0DAF9CC
:103DE000FDF7E0FDFDF7E0F94FF478405E4908800B
:103DF000FCF7F6FFFDF732F8FEF788F9FFF72EF92A
:103E0000B1E05A49086800EBD0714910A0EB4101BC
:103E100009B900F0A1F96420FFF722FFFFF796FF30
:103E20000A20FFF71DFF52A31F2218210846FCF7A6
:103E30000BFF544890ED000AB5EEC00AF1EE10FAFF
:103E400011D090ED000ADFED500AB4EE600AF1EEF9
:103E500010FA08D090ED000ADFED4C0AB4EE600ACB
:103E6000F1EE10FA30D1FFF771FF0A20FFF7F8FEEC
:103E7000444890ED000AB5EEC00AF1EE10FA11D0F8
:103E800090ED000ADFED400AB4EE600AF1EE10FAA0
:103E900008D090ED000ADFED3D0AB4EE600AF1EEC5
:103EA00010FA36D13AA3002250211046FCF7CCFE7E
:103EB00000F0A2F8FDF75AFE36A34FF478427821BD
:103EC0000020FCF7C1FE24E0FFF740FF0A20FFF7C7
:103ED000C7FE2C4890ED000AB5EEC00AF1EE10FACC
:103EE00017D090ED000ADFED280AB4EE600AF1EE7B
:103EF00010FA0ED02BA3002278211046FCF7A4FE66
:103F0000FDF770FD23A34FF4784250210020FCF709
:103F10009BFE254802882548018825A0FFF708FA5E
:103F20002B480068FCF76AFA41EC190B1548006849
:103F3000FCF764FA41EC180B8DED009B53EC182B49
:103F400024A0FFF7F5F94FF47A70FFF789FE0748D0
:103F50000068401C0549086008460068B0F57A7F93
:103F600001D1002008604CE77000002038000020DC
:103F7000BCF2D2D7B5E7D7E8B5E7C8DDB2E2C1BF3A
:103F800000000000440000200000C8420000A042E1
:103F9000523A000020202020202020202020202015
:103FA00020000000433A00004000002042000020B2
:103FB00049433156616C7565203D202564202049B8
:103FC000433256616C7565203D2025642000000059
:103FD00048000020D5BCBFD5B1C8A3BA25302E32C9
:103FE000662525202020C6B5C2CAA3BA25302E32A8
:103FF00066487A0A0000000010B504200F490870D6
:104000009FED0F0A0F4880ED000A4FF400410E4863
:10401000FCF7DDFF10210D48FCF7D9FF40210B48CC
:10402000FCF7D5FF4FF480710848FCF7D0FF4FF440
:1040300000510548FCF7CDFF10BD00003400002002
:1040400000504347280000200018024000040240AE
:1040500010B503200F4908709FED0F0A0F4880ED3F
:10406000000A4FF400510E48FCF7B1FF10210D4833
:10407000FCF7ADFF40210B48FCF7A9FF4FF480711E
:104080000848FCF7A4FF4FF400410548FCF7A1FFE6
:1040900010BD00003400002000409C452800002096
:1040A000001802400004024010B502200F490870B9
:1040B0009FED0F0A0F4880ED000A4FF400510E48A3
:1040C000FCF785FF4FF400410B48FCF780FF4021CF
:1040D0000A48FCF77CFF4FF480710848FCF777FF33
:1040E00010210648FCF775FF10BD000034000020C9
:1040F0000000FA432800002000180240000402409B
:1041000010B501200F4908709FED0F0A0F4880ED90
:10411000000A4FF400510E48FCF759FF4FF40041DC
:104120000B48FCF754FF10210A48FCF750FF4FF4EE
:1041300080710848FCF74BFF40210648FCF749FF17
:1041400010BD00003400002000004842280000207C
:10415000001802400004024010B54FF400510B4813
:10416000FCF735FF4FF400410848FCF730FF102101
:104170000748FCF72CFF40210548FCF728FF4FF4C7
:1041800080710348FCF725FF10BD000000180240B5
:104190000004024010B588B0044601210846FDF72E
:1041A00049FE01211020FDF775FE07220921244850
:1041B000FCF7EAFE07220A212148FCF7E5FE4FF44E
:1041C000C060069002208DF81C008DF81D000020B4
:1041D0008DF81E0001208DF81F0006A91848FCF775
:1041E0008BFE02940020ADF80C00ADF80E00ADF887
:1041F0001000ADF814000C20ADF8120002A911480F
:10420000FFF724F801210F48FEF7C5FF40210D48B4
:10421000FEF7B8FF012240F225510A48FEF7F1FFF0
:1042200025208DF8040003208DF805008DF8060088
:1042300001208DF8070001A8FDF7B4FD08B010BDFE
:1042400000000240001001400000000000000000DB
:1042500000000000000000003F40000000000000DF
:1042600000003000400030004000000009000BC09A
:104270003D000BC03D00090018C024407FE02240F3
:1042800031800000180024C01B000D8032400180E6
:1042900003801C4027401C80074000401000600045
:1042A00000000000000000000000000000001F806F
:1042B000204040200000402020401F8000000000DF
:1042C000090006001F800600090000000400040029
:1042D0003F800400040000000010006000000000A7
:1042E00000000000040004000400040004000000BA
:1042F000000000400000000000000000002001C09D
:1043000006003800400000001F8020402040204070
:104310001F800000000010403FC00040000000006F
:1043200018C0214022402440184000001080204046
:10433000244024401B80000002000D0011003FC0FB
:10434000014000003C8024402440244023800000A1
:104350001F802440244034400380000030002000AF
:1043600027C03800200000001B8024402440244047
:104370001B8000001C0022C0224022401F80000041
:1043800000000000084000000000000000000000E5
:104390000460000000000000000004000A0011009A
:1043A00020804040090009000900090009000000C0
:1043B00000004040208011000A0004001800200086
:1043C00023402400180000001F802040274029407F
:1043D0001F400000004007C039000F0001C000402E
:1043E00020403FC0244024401B8000001F8020400C
:1043F000204020403080000020403FC0204020402E
:104400001F80000020403FC024402E4030C00000EC
:1044100020403FC024402E00300000000F001080DC
:10442000204022403380020020403FC004000400AE
:104430003FC02040204020403FC02040204000009E
:104440000060202020203FC02000200020403FC0EE
:1044500024400B0030C0204020403FC0204000409E
:10446000004000C03FC03C0003C03C003FC0000013
:1044700020403FC00C4023003FC020001F80204050
:10448000204020401F80000020403FC024402400E6
:10449000180000001F802140214020E01FA00000E4
:1044A00020403FC02440260019C0004018C02440CE
:1044B0002440224031800000300020403FC0204096
:1044C0003000000020003F80004000403F8020007E
:1044D00020003E0001C0070038002000380007C05F
:1044E0003C0007C038000000204039C0060039C039
:1044F000204000002000384007C038402000000065
:10450000304021C02640384020C00000000000009C
:104510007FE0402040200000000070000C0003807D
:10452000004000000000402040207FE0000000002C
:1045300000002000400020000000000000100010DB
:1045400000100010001000100000000040000000EB
:1045500000000000000002800540054003C000404C
:1045600020003FC00440044003800000000003809E
:104570000440044006400000000003800440244042
:104580003FC000400000038005400540034000009C
:10459000000004401FC0244024402000000002E02E
:1045A000055005500650042020403FC00440040040
:1045B00003C000400000044027C00040000000008D
:1045C00000100010041027E00000000020403FC051
:1045D0000140070004C00440204020403FC000408C
:1045E0000040000007C0040007C0040003C0000032
:1045F000044007C00440040003C0004000000380E2
:104600000440044003800000041007F004500440FC
:1046100003800000000003800440045007F00010F5
:10462000044007C0024004000400000000000640EF
:104630000540054004C00000000004001F80044045
:1046400000400000040007800040044007C0004014
:104650000400070004C0018006000400060001C039
:10466000070001C006000000044006C0010006C0AB
:10467000044000000410071004E00180060004005C
:104680000000044005C00640044000000000000097
:1046900004007BE040200000000000000000FFF06C
:1046A00000000000000040207BE00400000000004B
:1046B000400080004000200020004000000000007A
:1046C00000000000000000000000000000000000EA
:1046D00000001FCC000C00000000000000000800DB
:1046E000300060000800300060000000022003FC81
:1046F0001E20022003FC1E200220000000000E18D5
:1047000011043FFF10840C78000000000F0010849B
:104710000F3800C0077818840078000000780F84F4
:1047200010C411240E9800E40084000808006800FA
:104730007000000000000000000000000000000009
:10474000000007E0181820044002000000004002AA
:104750002004181807E0000000000000024002409A
:1047600001800FF0018002400240000000800080C4
:1047700000800FF800800080008000000001000D24
:10478000000E00000000000000000000000000809B
:104790000080008000800080008000800000000C0D
:1047A000000C0000000000000000000000000006F7
:1047B000001800600180060018002000000007F0CB
:1047C000080810041004080807F00000000008049E
:1047D00008041FFC000400040000000000000E0C90
:1047E00010141024104411840E0C000000000C184A
:1047F00010041104110412880C700000000000E085
:104800000320042408241FFC0024000000001F983B
:10481000108411041104108810700000000007F0CB
:1048200008881104110418880070000000001C00A2
:10483000100010FC13001C001000000000000E38D7
:1048400011441084108411440E3800000000070049
:10485000088C10441044088807F000000000000095
:104860000000030C030C000000000000000000002A
:1048700000010106000000000000000000000080B0
:104880000140022004100808100400000220022049
:10489000022002200220022002200000000010045A
:1048A00008080410022001400080000000000E00F3
:1048B0001200100C106C10800F00000003E00C18A8
:1048C00013E4142417C4082807D000000004003C97
:1048D00003C41C40074000E4001C000410041FFC3B
:1048E0001104110411040E880070000003E00C187C
:1048F00010041004100410081C10000010041FFC09
:10490000100410041004080807F0000010041FFC35
:104910001104110417C410040818000010041FFC2F
:104920001104110017C010000800000003E00C186B
:104930001004100410441C780040000010041FFCF8
:1049400010840080008010841FFC100400001004FC
:1049500010041FFC100410040000000000030001FC
:10496000100110011FFE10001000000010041FFCB9
:10497000110403801464181C1004000010041FFCB0
:104980001004000400040004000C000010041FFCCC
:104990001F0000FC1F001FFC1004000010041FFC7F
:1049A0000C04030000E010181FFC100007F00808BA
:1049B000100410041004080807F0000010041FFC85
:1049C00010841080108010800F00000007F008187D
:1049D00010241024101C080A07F2000010041FFC09
:1049E0001104110011C011300E0C000400000E1C47
:1049F00011041084108410441C38000018001000AA
:104A000010041FFC100410001800000010001FF814
:104A100010040004000410041FF8100010001E0011
:104A200011E0001C007013801C0010001FC0103C1F
:104A300000E01F0000E0103C1FC000001004180C34
:104A4000163401C001C01634180C100410001C00EC
:104A5000130400FC13041C00100000000804101CC8
:104A60001064108413041C041018000000000000DF
:104A700000007FFE400240024002000000003000C3
:104A80000C0003800060001C0003000000004002D6
:104A9000400240027FFE0000000000000000000015
:104AA0002000400040004000200000000001000104
:104AB00000010001000100010001000100004000B0
:104AC00040002000000000000000000000000098EE
:104AD000012401440144014400FC000410001FFCB7
:104AE00000880104010400880070000000000070CC
:104AF0000088010401040104008800000000007027
:104B000000880104010411081FFC0004000000F8E3
:104B1000014401440144014400C8000000000104B4
:104B200001040FFC1104110411001800000000D64C
:104B300001290129012901C90106000010041FFCF7
:104B4000008401000100010400FC000400000104D5
:104B5000190419FC00040004000000000000000318
:104B600000010101190119FE0000000010041FFCE2
:104B70000024004001B4010C0104000000001004F6
:104B800010041FFC0004000400000000010401FCEC
:104B90000104010001FC0104010000FC010401FC0E
:104BA000008401000100010400FC0004000000F882
:104BB000010401040104010400F80000010101FFE7
:104BC00000850104010400880070000000000070EE
:104BD000008801040104010501FF00010104010432
:104BE00001FC00840104010001800000000000CCF1
:104BF0000124012401240124019800000000010087
:104C0000010007F80104010400000000010001F8A0
:104C1000000400040004010801FC000401000180FC
:104C20000170000C001001600180010001F0010C16
:104C3000003001C00030010C01F00100000001044F
:104C4000018C00740170018C0104000001010181DC
:104C50000171000E00180160018001000000018454
:104C6000010C013401440184010C0000000000002B
:104C70000000000001003EFC400240020000000075
:104C800000000000FFFF00000000000000004002E4
:104C900040023EFC01000000000000000000600037
:104CA0008000800040004000200020000000000044
:104CB00000000000000000000000000000000000F4
:104CC00000000000000000000000000000000000E4
:104CD0000000000000000000000000000000000FC5
:104CE00080380FFE380F8038000000000000000000
:104CF00000000000000000000000010000060000AD
:104D00000C00003800003100000600000C000038E4
:104D1000000030000000000000000000618000671B
:104D2000F807F98000618000618000618000618087
:104D30000067F807F98000618000000000000000B3
:104D4000000001C0E003E0F00630080418081FFF6F
:104D5000FE040E080787F00381E000000000000059
:104D600001F000060C00040408060C7001F9C000F4
:104D70000E00003BE000EC18070808040C180003C4
:104D8000E00000000001E00007F003F818041C0830
:104D900004170807E1D003C0E00023B0003C08007E
:104DA0002008000010000000000000010000310099
:104DB000003200001C0000000000000000000000A5
:104DC00000000000000000000000000000000000E3
:104DD0000000000000000000000000007F0001FF54
:104DE000C00780F00C001810000420000200000032
:104DF0000000002000021000040C00180780F001E1
:104E0000FFC0007F00000000000000000000000064
:104E10000000000000000000420000660000660084
:104E2000003C0000180003FFC0001800003C000018
:104E30006600006600004200000000000800000854
:104E40000000080000080000080001FFC000080082
:104E50000008000008000008000008000000000032
:104E6000000100003100003200001C0000000000C2
:104E70000000000000000000000000000000000032
:104E80000000000008000008000008000008000002
:104E900008000008000008000008000008000008E2
:104EA0000000000000000000000000003800003892
:104EB00000003800000000000000000000000000BA
:104EC00000000000000000000000000000060000DC
:104ED0001C000070000180000E0000380000C000BF
:104EE0000700001C0000300000000000000000006F
:104EF0007F8001FFE00380700600180400080400B2
:104F00000806001803807001FFE0007F80000000A9
:104F10000000000000000100080100080100080373
:104F2000FFF807FFF8000008000008000008000074
:104F30000000000000000001C03802C058040098C2
:104F4000040118040218040418061C1803F81801B8
:104F5000E0F800000000000000000001C0E003C015
:104F6000F004000804080804080806180803F418E8
:104F700001E7F00001E00000000000000000000078
:104F80000300000D00001100006100008108030112
:104F90000807FFF80FFFF8000108000108000000F3
:104FA0000000000000E007FCD00608080610080614
:104FB0001008061008061838060FF00607C0000093
:104FC00000000000000000003F8001FFE00384308B
:104FD0000208180410080410080410080718100329
:104FE0000FF00007C000000000000000000003C038
:104FF000000700000600000600F80607F806180083
:1050000006E00007000006000000000000000001AC
:10501000E1E003F7F0063410041808041808040C43
:1050200008040C0806161803F3F001C1E0000000A4
:1050300000000000F80003FC3003063804020804F6
:1050400002080402080404100308F001FFC0007FF6
:105050000000000000000000000000000000000050
:105060000000000070380070380070380000000048
:105070000000000000000000000000000000000030
:105080000000000000000000301A00301C0000008A
:105090000000000000000000000000000000000010
:1050A0000000000800001400002200004100008001
:1050B00080010040020020040010080008000000E9
:1050C000000000002100002100002100002100005C
:1050D000210000210000210000210000210000210A
:1050E000000000000000000000000800080400109C
:1050F00002002001004000808000410000220000EA
:10510000140000080000000000000003C00004C0FC
:1051100000040000080038080F380808380810009C
:105120000C300007E00003C0000000000000000099
:105130003F8000FFE0038070020F1006708804C0FB
:1051400088048308047F8802C09003012000FE4089
:105150000000080000180001F8003E0801C2000726
:10516000020007E20000FE00001FC80001F8000076
:105170003800000804000807FFF807FFF8040808D3
:1051800004080804080804080806180803F41801AD
:10519000E7F00001E0000000000000003F8001FF98
:1051A000E0038070020018040008040008040008EE
:1051B0000400100600200780C0000000040008075B
:1051C000FFF807FFF80400080400080400080400C2
:1051D0001802001003807001FFE0007F80000000D3
:1051E00004000807FFF807FFF8040808040808048B
:1051F0000808040808043E08040008060018010016
:105200006000000004000807FFF807FFF804080822
:10521000040800040800040800043E00060000061C
:105220000000018000000000000000003F8001FF3E
:10523000E003807006001804000804020804020855
:105240000203F00783F000020000020004000807D8
:10525000FFF807FFF804080800080000080000082D
:105260000000080004080807FFF807FFF80400081A
:105270000000000000000400080400080400080703
:10528000FFF807FFF8040008040008040008000005
:105290000000000000000000000600000700000100
:1052A00004000104000104000307FFFE07FFFC04E3
:1052B000000004000004000004000807FFF807FFD6
:1052C000F8040C08001800003E0004C7800503C85D
:1052D0000600F8040038040018000008040008075D
:1052E000FFF807FFF80400080000080000080000AD
:1052F000080000080000080000180000600000001E
:1053000004000807FFF807800807FC00007FC000C2
:1053100003F80007C000780007800807FFF807FFC0
:10532000F804000804000807FFF807000803C0009D
:1053300000E000003800001E000007000001C0046B
:1053400000F007FFF8040000000000007F8001FF6C
:10535000E003807006001804000804000806001826
:1053600003003001FFE0007F800000000400080718
:10537000FFF807FFF8040408040400040400040410
:1053800000040400060C0003F80001F00000000017
:10539000000000007F8001FFE003807006008804A9
:1053A00000880400C806003C03003E01FFE6007FC1
:1053B0008400000004000807FFF807FFF80408084D
:1053C000040800040C00040F00040BC00610F003D6
:1053D000F03801E00800000800000001E0F803F0E8
:1053E00030063010041808041808040C08040C08CF
:1053F0000206180207F00781E000000001800006A5
:10540000000004000004000004000807FFF807FF84
:10541000F8040008040000040000060000018000F9
:1054200004000007FFE007FFF00400180000080078
:10543000000800000800000800000804001007FF32
:10544000E004000004000006000007E00007FE0082
:10545000041FE00001F80000380001E0043E0007EE
:10546000C00006000004000004000007E00007FF81
:10547000C0041FF80007C007F80007FF80043FF8CA
:105480000007C004F800070000040000000000044A
:10549000000806001807C07805F1C8003E00001F8C
:1054A000800463E80780F806001804000800000084
:1054B00004000006000007800007E008047C0800E4
:1054C0001FF80007F800180804E0080700000600AD
:1054D000000400000000000100080600380400F885
:1054E0000403E8040F08047C0805F00807C0080757
:1054F0000018040060000000000000000000000030
:10550000000000000000003FFFFE2000022000021B
:105510002000022000022000020000000000000025
:10552000000008000007000000C00000380000066E
:10553000000001C000003000000E0000010000006B
:1055400000000000000020000220000220000220D5
:1055500000022000023FFFFE0000000000000000EB
:105560000000000000000000000000000008000033
:105570001000003000002000003000001000000883
:105580000000000000000000000001000001000019
:105590000100000100000100000100000100000105
:1055A00000000100000100000100000100000000F7
:1055B000000000000020000020000010000010008B
:1055C00000000000000000000000000000000000DB
:1055D0000000000000F00019F8001B18002208006D
:1055E0002608002408002410003FF8001FF80000DF
:1055F0000800001800000004000007FFF80FFFF08B
:1056000000181800100800200800200800301800BA
:105610001FF0000FC00000000000000007C0001FC6
:10562000F0001830002008002008002008003C0886
:10563000001C1000006000000000000000000000DE
:1056400007C0001FF00038180020080020080020C4
:105650000804101007FFF80FFFF000001000000012
:105660000000000000000007C0001FF00012300022
:105670002218002208002208003208001E10000E26
:10568000200000000000000020000020080020088A
:1056900001FFF803FFF8062008042008042008078B
:1056A000200003000000000000000000000E000EBB
:1056B0006E001FF30031B10020B10020B100319124
:1056C000001F13002E1E00200E00300000000004FA
:1056D000000807FFF80FFFF8001008002000002066
:1056E00000002008003FF8001FF80000080000003C
:1056F000000000000000002008002008002008062C
:105700003FF8063FF800000800000800000800000D
:105710000000000000000000000000000300000383
:10572000002001002001002003063FFE063FFC0090
:10573000000000000000000000000004000807FF57
:10574000F80FFFF8000188000300002FC00038F8B0
:1057500000203800200800000800000000000000C1
:10576000000004000804000804000807FFF80FFF09
:10577000F800000800000800000800000000000019
:10578000002008003FF8003FF8001008002000004B
:105790003FF8003FF8001008002000003FF8003FED
:1057A000F8000008000000002008003FF8003FF863
:1057B000001008001000002000002008003FF80042
:1057C0001FF80000080000000000000007C0000FE4
:1057D000F0001830003008002008002008003008D1
:1057E000001830000FF00007C000000000000000AB
:1057F0002001003FFF003FFF0010110020090020A2
:1058000008002008003038001FF0000FC000000022
:105810000000000007C0001FF0003818002008003A
:105820002008002009001011001FFF003FFF0000AA
:1058300001000000002008002008002008003FF8B8
:10584000003FF800080800100800200800200000B1
:105850003000003000000000000000000000000CDC
:1058600078001E1800330800230800210800218852
:105870000021980030F000386000000000000000B7
:10588000200000200000200000FFF003FFF80020AF
:105890000800200800200800003000000000000080
:1058A000000000002000003FF0007FF8000018001A
:1058B0000008000008002010003FF8007FF0000002
:1058C00010000000000000002000003000003C003C
:1058D000003F800023F0000078000070002380006B
:1058E0003C00003000002000002000003C00003F91
:1058F000E00023F80000E0002700003E00003FE049
:105900000021F80001E0003E00002000000000003F
:105910002008002008003838003E68002780000377
:10592000C8002CF8003838002018002008000000BB
:10593000000000002000003003003C01003F830015
:1059400023EC000070002380003C000020000020B9
:1059500000000000000000000000003808002038AF
:105960000020F80023E8002F88003E0800380800D7
:10597000201800007000000000000000000000007F
:10598000000000000000000008000014001FF7FCE9
:1059900030000620000200000000000000000000AF
:1059A0000000000000000000000000000000FFFFF9
:1059B000FF000000000000000000000000000000E8
:1059C0000000000000002000023000061FF7FC006D
:1059D00014000008000000000000000000000000AB
:1059E00000000000000000180000600000400000FF
:1059F0004000002000001000000800000400000427
:105A000000000C0000100000B5E7020002000200D8
:105A10007FF0421042107FF0421042107FF04200AF
:105A20000208020801F800000000D7D37FF0002030
:105A30000040008001000200FFF8020002000200A6
:105A40000200020002000E0000000000BCBC10209A
:105A50001020102013FEFC201020102015FC1884AC
:105A60003088D04810501020105051882606CAF5B2
:105A700001000120011001107FFC0380054005405A
:105A80000920111021084104010201000100010058
:105A9000D2BA0080404027F8114001408278424845
:105AA00016A81AD02350222042204250028800001B
:105AB0000000BEA73FE020203FE020203FE00000A4
:105AC000FDF885088508FDF885088508FDF8850836
:105AD00000000000B2E200084F8828880AA88AA8BF
